{
  "contractName": "TokenHelper",
  "abi": [
    {
      "anonymous": false,
      "inputs": [
        {
          "indexed": true,
          "internalType": "address",
          "name": "previousOwner",
          "type": "address"
        },
        {
          "indexed": true,
          "internalType": "address",
          "name": "newOwner",
          "type": "address"
        }
      ],
      "name": "OwnershipTransferred",
      "type": "event"
    },
    {
      "anonymous": false,
      "inputs": [
        {
          "indexed": false,
          "internalType": "uint256",
          "name": "tokenId",
          "type": "uint256"
        },
        {
          "indexed": false,
          "internalType": "string",
          "name": "name",
          "type": "string"
        },
        {
          "indexed": false,
          "internalType": "string",
          "name": "addresse",
          "type": "string"
        },
        {
          "indexed": false,
          "internalType": "uint256",
          "name": "price",
          "type": "uint256"
        },
        {
          "indexed": false,
          "internalType": "string",
          "name": "image",
          "type": "string"
        },
        {
          "indexed": false,
          "internalType": "bool",
          "name": "state",
          "type": "bool"
        },
        {
          "indexed": false,
          "internalType": "string",
          "name": "description",
          "type": "string"
        }
      ],
      "name": "newToken",
      "type": "event"
    },
    {
      "constant": false,
      "inputs": [
        {
          "internalType": "string",
          "name": "_name",
          "type": "string"
        },
        {
          "internalType": "string",
          "name": "_addresse",
          "type": "string"
        },
        {
          "internalType": "uint256",
          "name": "_price",
          "type": "uint256"
        },
        {
          "internalType": "string",
          "name": "_image",
          "type": "string"
        },
        {
          "internalType": "string",
          "name": "_description",
          "type": "string"
        }
      ],
      "name": "createToken",
      "outputs": [],
      "payable": false,
      "stateMutability": "nonpayable",
      "type": "function"
    },
    {
      "constant": true,
      "inputs": [],
      "name": "isOwner",
      "outputs": [
        {
          "internalType": "bool",
          "name": "",
          "type": "bool"
        }
      ],
      "payable": false,
      "stateMutability": "view",
      "type": "function"
    },
    {
      "constant": true,
      "inputs": [],
      "name": "owner",
      "outputs": [
        {
          "internalType": "address",
          "name": "",
          "type": "address"
        }
      ],
      "payable": false,
      "stateMutability": "view",
      "type": "function"
    },
    {
      "constant": false,
      "inputs": [],
      "name": "renounceOwnership",
      "outputs": [],
      "payable": false,
      "stateMutability": "nonpayable",
      "type": "function"
    },
    {
      "constant": true,
      "inputs": [
        {
          "internalType": "uint256",
          "name": "",
          "type": "uint256"
        }
      ],
      "name": "tokenToOwner",
      "outputs": [
        {
          "internalType": "address",
          "name": "",
          "type": "address"
        }
      ],
      "payable": false,
      "stateMutability": "view",
      "type": "function"
    },
    {
      "constant": true,
      "inputs": [
        {
          "internalType": "uint256",
          "name": "",
          "type": "uint256"
        }
      ],
      "name": "tokens",
      "outputs": [
        {
          "internalType": "string",
          "name": "name",
          "type": "string"
        },
        {
          "internalType": "string",
          "name": "addresse",
          "type": "string"
        },
        {
          "internalType": "uint256",
          "name": "price",
          "type": "uint256"
        },
        {
          "internalType": "string",
          "name": "image",
          "type": "string"
        },
        {
          "internalType": "bool",
          "name": "state",
          "type": "bool"
        },
        {
          "internalType": "string",
          "name": "description",
          "type": "string"
        },
        {
          "internalType": "uint256",
          "name": "createdAt",
          "type": "uint256"
        },
        {
          "internalType": "uint256",
          "name": "updatedAt",
          "type": "uint256"
        }
      ],
      "payable": false,
      "stateMutability": "view",
      "type": "function"
    },
    {
      "constant": false,
      "inputs": [
        {
          "internalType": "address",
          "name": "newOwner",
          "type": "address"
        }
      ],
      "name": "transferOwnership",
      "outputs": [],
      "payable": false,
      "stateMutability": "nonpayable",
      "type": "function"
    },
    {
      "constant": true,
      "inputs": [
        {
          "internalType": "uint256",
          "name": "_tokenId",
          "type": "uint256"
        }
      ],
      "name": "getTokenDetail",
      "outputs": [
        {
          "internalType": "uint256",
          "name": "",
          "type": "uint256"
        },
        {
          "internalType": "string",
          "name": "",
          "type": "string"
        },
        {
          "internalType": "string",
          "name": "",
          "type": "string"
        },
        {
          "internalType": "uint256",
          "name": "",
          "type": "uint256"
        },
        {
          "internalType": "string",
          "name": "",
          "type": "string"
        },
        {
          "internalType": "string",
          "name": "",
          "type": "string"
        }
      ],
      "payable": false,
      "stateMutability": "view",
      "type": "function"
    },
    {
      "constant": true,
      "inputs": [
        {
          "internalType": "address",
          "name": "_owner",
          "type": "address"
        }
      ],
      "name": "getTokensByOwner",
      "outputs": [
        {
          "internalType": "uint256[]",
          "name": "",
          "type": "uint256[]"
        }
      ],
      "payable": false,
      "stateMutability": "view",
      "type": "function"
    },
    {
      "constant": true,
      "inputs": [],
      "name": "getAllTokens",
      "outputs": [
        {
          "internalType": "uint256[]",
          "name": "",
          "type": "uint256[]"
        }
      ],
      "payable": false,
      "stateMutability": "view",
      "type": "function"
    },
    {
      "constant": false,
      "inputs": [
        {
          "internalType": "uint256",
          "name": "_tokenId",
          "type": "uint256"
        },
        {
          "internalType": "string",
          "name": "_name",
          "type": "string"
        },
        {
          "internalType": "string",
          "name": "_addresse",
          "type": "string"
        },
        {
          "internalType": "uint256",
          "name": "_price",
          "type": "uint256"
        },
        {
          "internalType": "string",
          "name": "_image",
          "type": "string"
        },
        {
          "internalType": "string",
          "name": "_description",
          "type": "string"
        }
      ],
      "name": "updateToken",
      "outputs": [],
      "payable": false,
      "stateMutability": "nonpayable",
      "type": "function"
    },
    {
      "constant": false,
      "inputs": [
        {
          "internalType": "uint256",
          "name": "_tokenId",
          "type": "uint256"
        }
      ],
      "name": "setTokenOnline",
      "outputs": [],
      "payable": false,
      "stateMutability": "nonpayable",
      "type": "function"
    },
    {
      "constant": false,
      "inputs": [
        {
          "internalType": "uint256",
          "name": "_tokenId",
          "type": "uint256"
        }
      ],
      "name": "setTokenOffline",
      "outputs": [],
      "payable": false,
      "stateMutability": "nonpayable",
      "type": "function"
    }
  ],
  "bytecode": "0x608060405260006100146100b760201b60201c565b9050806000806101000a81548173ffffffffffffffffffffffffffffffffffffffff021916908373ffffffffffffffffffffffffffffffffffffffff1602179055508073ffffffffffffffffffffffffffffffffffffffff16600073ffffffffffffffffffffffffffffffffffffffff167f8be0079c531659141344cd1fd0a4f28419497f9722a3daafe3b4186f6b6457e060405160405180910390a3506100bf565b600033905090565b61208e806100ce6000396000f3fe608060405234801561001057600080fd5b50600436106100ce5760003560e01c80638da5cb5b1161008c578063b1821e7711610066578063b1821e771461073c578063c0bcc07a146109c6578063cc0b2c9f14610bbf578063f2fde38b14610c2d576100ce565b80638da5cb5b146106a25780638f32d59b146106ec578063986cf7591461070e576100ce565b8062d23741146100d35780632a5c792a1461036757806340398d67146103c65780634f64b2be1461045f578063715018a61461066a5780637801348414610674575b600080fd5b610365600480360360c08110156100e957600080fd5b81019080803590602001909291908035906020019064010000000081111561011057600080fd5b82018360208201111561012257600080fd5b8035906020019184600183028401116401000000008311171561014457600080fd5b91908080601f016020809104026020016040519081016040528093929190818152602001838380828437600081840152601f19601f820116905080830192505050505050509192919290803590602001906401000000008111156101a757600080fd5b8201836020820111156101b957600080fd5b803590602001918460018302840111640100000000831117156101db57600080fd5b91908080601f016020809104026020016040519081016040528093929190818152602001838380828437600081840152601f19601f820116905080830192505050505050509192919290803590602001909291908035906020019064010000000081111561024857600080fd5b82018360208201111561025a57600080fd5b8035906020019184600183028401116401000000008311171561027c57600080fd5b91908080601f016020809104026020016040519081016040528093929190818152602001838380828437600081840152601f19601f820116905080830192505050505050509192919290803590602001906401000000008111156102df57600080fd5b8201836020820111156102f157600080fd5b8035906020019184600183028401116401000000008311171561031357600080fd5b91908080601f016020809104026020016040519081016040528093929190818152602001838380828437600081840152601f19601f820116905080830192505050505050509192919290505050610c71565b005b61036f610dd5565b6040518080602001828103825283818151815260200191508051906020019060200280838360005b838110156103b2578082015181840152602081019050610397565b505050509050019250505060405180910390f35b610408600480360360208110156103dc57600080fd5b81019080803573ffffffffffffffffffffffffffffffffffffffff169060200190929190505050610e5e565b6040518080602001828103825283818151815260200191508051906020019060200280838360005b8381101561044b578082015181840152602081019050610430565b505050509050019250505060405180910390f35b61048b6004803603602081101561047557600080fd5b8101908080359060200190929190505050610f8b565b60405180806020018060200189815260200180602001881515151581526020018060200187815260200186815260200185810385528d818151815260200191508051906020019080838360005b838110156104f35780820151818401526020810190506104d8565b50505050905090810190601f1680156105205780820380516001836020036101000a031916815260200191505b5085810384528c818151815260200191508051906020019080838360005b8381101561055957808201518184015260208101905061053e565b50505050905090810190601f1680156105865780820380516001836020036101000a031916815260200191505b5085810383528a818151815260200191508051906020019080838360005b838110156105bf5780820151818401526020810190506105a4565b50505050905090810190601f1680156105ec5780820380516001836020036101000a031916815260200191505b50858103825288818151815260200191508051906020019080838360005b8381101561062557808201518184015260208101905061060a565b50505050905090810190601f1680156106525780820380516001836020036101000a031916815260200191505b509c5050505050505050505050505060405180910390f35b61067261124d565b005b6106a06004803603602081101561068a57600080fd5b8101908080359060200190929190505050611386565b005b6106aa611450565b604051808273ffffffffffffffffffffffffffffffffffffffff1673ffffffffffffffffffffffffffffffffffffffff16815260200191505060405180910390f35b6106f4611479565b604051808215151515815260200191505060405180910390f35b61073a6004803603602081101561072457600080fd5b81019080803590602001909291905050506114d7565b005b6109c4600480360360a081101561075257600080fd5b810190808035906020019064010000000081111561076f57600080fd5b82018360208201111561078157600080fd5b803590602001918460018302840111640100000000831117156107a357600080fd5b91908080601f016020809104026020016040519081016040528093929190818152602001838380828437600081840152601f19601f8201169050808301925050505050505091929192908035906020019064010000000081111561080657600080fd5b82018360208201111561081857600080fd5b8035906020019184600183028401116401000000008311171561083a57600080fd5b91908080601f016020809104026020016040519081016040528093929190818152602001838380828437600081840152601f19601f82011690508083019250505050505050919291929080359060200190929190803590602001906401000000008111156108a757600080fd5b8201836020820111156108b957600080fd5b803590602001918460018302840111640100000000831117156108db57600080fd5b91908080601f016020809104026020016040519081016040528093929190818152602001838380828437600081840152601f19601f8201169050808301925050505050505091929192908035906020019064010000000081111561093e57600080fd5b82018360208201111561095057600080fd5b8035906020019184600183028401116401000000008311171561097257600080fd5b91908080601f016020809104026020016040519081016040528093929190818152602001838380828437600081840152601f19601f8201169050808301925050505050505091929192905050506115a0565b005b6109f2600480360360208110156109dc57600080fd5b810190808035906020019092919050505061196d565b604051808781526020018060200180602001868152602001806020018060200185810385528a818151815260200191508051906020019080838360005b83811015610a4a578082015181840152602081019050610a2f565b50505050905090810190601f168015610a775780820380516001836020036101000a031916815260200191505b50858103845289818151815260200191508051906020019080838360005b83811015610ab0578082015181840152602081019050610a95565b50505050905090810190601f168015610add5780820380516001836020036101000a031916815260200191505b50858103835287818151815260200191508051906020019080838360005b83811015610b16578082015181840152602081019050610afb565b50505050905090810190601f168015610b435780820380516001836020036101000a031916815260200191505b50858103825286818151815260200191508051906020019080838360005b83811015610b7c578082015181840152602081019050610b61565b50505050905090810190601f168015610ba95780820380516001836020036101000a031916815260200191505b509a505050505050505050505060405180910390f35b610beb60048036036020811015610bd557600080fd5b8101908080359060200190929190505050611cc2565b604051808273ffffffffffffffffffffffffffffffffffffffff1673ffffffffffffffffffffffffffffffffffffffff16815260200191505060405180910390f35b610c6f60048036036020811015610c4357600080fd5b81019080803573ffffffffffffffffffffffffffffffffffffffff169060200190929190505050611cf5565b005b856002600082815260200190815260200160002060009054906101000a900473ffffffffffffffffffffffffffffffffffffffff1673ffffffffffffffffffffffffffffffffffffffff163373ffffffffffffffffffffffffffffffffffffffff1614610cdd57600080fd5b8560018881548110610ceb57fe5b90600052602060002090600802016000019080519060200190610d0f929190611ec7565b508460018881548110610d1e57fe5b90600052602060002090600802016001019080519060200190610d42929190611ec7565b508360018881548110610d5157fe5b9060005260206000209060080201600201819055508260018881548110610d7457fe5b90600052602060002090600802016003019080519060200190610d98929190611ec7565b508160018881548110610da757fe5b90600052602060002090600802016005019080519060200190610dcb929190611ec7565b5050505050505050565b606080600180549050604051908082528060200260200182016040528015610e0c5781602001602082028038833980820191505090505b509050600080905060008090505b600180549050811015610e555780838381518110610e3457fe5b60200260200101818152505081806001019250508080600101915050610e1a565b50819250505090565b606080600360008473ffffffffffffffffffffffffffffffffffffffff1673ffffffffffffffffffffffffffffffffffffffff16815260200190815260200160002054604051908082528060200260200182016040528015610ecf5781602001602082028038833980820191505090505b509050600080905060008090505b600180549050811015610f80578473ffffffffffffffffffffffffffffffffffffffff166002600083815260200190815260200160002060009054906101000a900473ffffffffffffffffffffffffffffffffffffffff1673ffffffffffffffffffffffffffffffffffffffff161415610f735780838381518110610f5e57fe5b60200260200101818152505081806001019250505b8080600101915050610edd565b508192505050919050565b60018181548110610f9857fe5b9060005260206000209060080201600091509050806000018054600181600116156101000203166002900480601f0160208091040260200160405190810160405280929190818152602001828054600181600116156101000203166002900480156110445780601f1061101957610100808354040283529160200191611044565b820191906000526020600020905b81548152906001019060200180831161102757829003601f168201915b505050505090806001018054600181600116156101000203166002900480601f0160208091040260200160405190810160405280929190818152602001828054600181600116156101000203166002900480156110e25780601f106110b7576101008083540402835291602001916110e2565b820191906000526020600020905b8154815290600101906020018083116110c557829003601f168201915b505050505090806002015490806003018054600181600116156101000203166002900480601f0160208091040260200160405190810160405280929190818152602001828054600181600116156101000203166002900480156111865780601f1061115b57610100808354040283529160200191611186565b820191906000526020600020905b81548152906001019060200180831161116957829003601f168201915b5050505050908060040160009054906101000a900460ff1690806005018054600181600116156101000203166002900480601f0160208091040260200160405190810160405280929190818152602001828054600181600116156101000203166002900480156112375780601f1061120c57610100808354040283529160200191611237565b820191906000526020600020905b81548152906001019060200180831161121a57829003601f168201915b5050505050908060060154908060070154905088565b611255611479565b6112c7576040517f08c379a00000000000000000000000000000000000000000000000000000000081526004018080602001828103825260208152602001807f4f776e61626c653a2063616c6c6572206973206e6f7420746865206f776e657281525060200191505060405180910390fd5b600073ffffffffffffffffffffffffffffffffffffffff166000809054906101000a900473ffffffffffffffffffffffffffffffffffffffff1673ffffffffffffffffffffffffffffffffffffffff167f8be0079c531659141344cd1fd0a4f28419497f9722a3daafe3b4186f6b6457e060405160405180910390a360008060006101000a81548173ffffffffffffffffffffffffffffffffffffffff021916908373ffffffffffffffffffffffffffffffffffffffff160217905550565b806002600082815260200190815260200160002060009054906101000a900473ffffffffffffffffffffffffffffffffffffffff1673ffffffffffffffffffffffffffffffffffffffff163373ffffffffffffffffffffffffffffffffffffffff16146113f257600080fd5b60006001838154811061140157fe5b906000526020600020906008020160040160006101000a81548160ff021916908315150217905550426001838154811061143757fe5b9060005260206000209060080201600701819055505050565b60008060009054906101000a900473ffffffffffffffffffffffffffffffffffffffff16905090565b60008060009054906101000a900473ffffffffffffffffffffffffffffffffffffffff1673ffffffffffffffffffffffffffffffffffffffff166114bb611d7b565b73ffffffffffffffffffffffffffffffffffffffff1614905090565b806002600082815260200190815260200160002060009054906101000a900473ffffffffffffffffffffffffffffffffffffffff1673ffffffffffffffffffffffffffffffffffffffff163373ffffffffffffffffffffffffffffffffffffffff161461154357600080fd5b600180838154811061155157fe5b906000526020600020906008020160040160006101000a81548160ff021916908315150217905550426001838154811061158757fe5b9060005260206000209060080201600701819055505050565b600060018060405180610100016040528089815260200188815260200187815260200186815260200160001515815260200185815260200142815260200142815250908060018154018082558091505090600182039060005260206000209060080201600090919290919091506000820151816000019080519060200190611629929190611f47565b506020820151816001019080519060200190611646929190611f47565b5060408201518160020155606082015181600301908051906020019061166d929190611f47565b5060808201518160040160006101000a81548160ff02191690831515021790555060a08201518160050190805190602001906116aa929190611f47565b5060c0820151816006015560e082015181600701555050039050336002600083815260200190815260200160002060006101000a81548173ffffffffffffffffffffffffffffffffffffffff021916908373ffffffffffffffffffffffffffffffffffffffff160217905550600360003373ffffffffffffffffffffffffffffffffffffffff1673ffffffffffffffffffffffffffffffffffffffff168152602001908152602001600020600081548092919060010191905055507fa60cc9e4a3ac22fc629a32ed98e504ee674cda7aab306e4f185ff76f664a6245818787878760008860405180888152602001806020018060200187815260200180602001861515151581526020018060200185810385528b818151815260200191508051906020019080838360005b838110156117f05780820151818401526020810190506117d5565b50505050905090810190601f16801561181d5780820380516001836020036101000a031916815260200191505b5085810384528a818151815260200191508051906020019080838360005b8381101561185657808201518184015260208101905061183b565b50505050905090810190601f1680156118835780820380516001836020036101000a031916815260200191505b50858103835288818151815260200191508051906020019080838360005b838110156118bc5780820151818401526020810190506118a1565b50505050905090810190601f1680156118e95780820380516001836020036101000a031916815260200191505b50858103825286818151815260200191508051906020019080838360005b83811015611922578082015181840152602081019050611907565b50505050905090810190601f16801561194f5780820380516001836020036101000a031916815260200191505b509b50505050505050505050505060405180910390a1505050505050565b60006060806000606080600087118061198b57506001805490508711155b61199457600080fd5b61199c611fc7565b600188815481106119a957fe5b906000526020600020906008020160405180610100016040529081600082018054600181600116156101000203166002900480601f016020809104026020016040519081016040528092919081815260200182805460018160011615610100020316600290048015611a5c5780601f10611a3157610100808354040283529160200191611a5c565b820191906000526020600020905b815481529060010190602001808311611a3f57829003601f168201915b50505050508152602001600182018054600181600116156101000203166002900480601f016020809104026020016040519081016040528092919081815260200182805460018160011615610100020316600290048015611afe5780601f10611ad357610100808354040283529160200191611afe565b820191906000526020600020905b815481529060010190602001808311611ae157829003601f168201915b5050505050815260200160028201548152602001600382018054600181600116156101000203166002900480601f016020809104026020016040519081016040528092919081815260200182805460018160011615610100020316600290048015611baa5780601f10611b7f57610100808354040283529160200191611baa565b820191906000526020600020905b815481529060010190602001808311611b8d57829003601f168201915b505050505081526020016004820160009054906101000a900460ff16151515158152602001600582018054600181600116156101000203166002900480601f016020809104026020016040519081016040528092919081815260200182805460018160011615610100020316600290048015611c675780601f10611c3c57610100808354040283529160200191611c67565b820191906000526020600020905b815481529060010190602001808311611c4a57829003601f168201915b505050505081526020016006820154815260200160078201548152505090508781600001518260200151836040015184606001518560a001518494508393508191508090509650965096509650965096505091939550919395565b60026020528060005260406000206000915054906101000a900473ffffffffffffffffffffffffffffffffffffffff1681565b611cfd611479565b611d6f576040517f08c379a00000000000000000000000000000000000000000000000000000000081526004018080602001828103825260208152602001807f4f776e61626c653a2063616c6c6572206973206e6f7420746865206f776e657281525060200191505060405180910390fd5b611d7881611d83565b50565b600033905090565b600073ffffffffffffffffffffffffffffffffffffffff168173ffffffffffffffffffffffffffffffffffffffff161415611e09576040517f08c379a00000000000000000000000000000000000000000000000000000000081526004018080602001828103825260268152602001806120346026913960400191505060405180910390fd5b8073ffffffffffffffffffffffffffffffffffffffff166000809054906101000a900473ffffffffffffffffffffffffffffffffffffffff1673ffffffffffffffffffffffffffffffffffffffff167f8be0079c531659141344cd1fd0a4f28419497f9722a3daafe3b4186f6b6457e060405160405180910390a3806000806101000a81548173ffffffffffffffffffffffffffffffffffffffff021916908373ffffffffffffffffffffffffffffffffffffffff16021790555050565b828054600181600116156101000203166002900490600052602060002090601f016020900481019282601f10611f0857805160ff1916838001178555611f36565b82800160010185558215611f36579182015b82811115611f35578251825591602001919060010190611f1a565b5b509050611f43919061200e565b5090565b828054600181600116156101000203166002900490600052602060002090601f016020900481019282601f10611f8857805160ff1916838001178555611fb6565b82800160010185558215611fb6579182015b82811115611fb5578251825591602001919060010190611f9a565b5b509050611fc3919061200e565b5090565b604051806101000160405280606081526020016060815260200160008152602001606081526020016000151581526020016060815260200160008152602001600081525090565b61203091905b8082111561202c576000816000905550600101612014565b5090565b9056fe4f776e61626c653a206e6577206f776e657220697320746865207a65726f2061646472657373a265627a7a72315820e636e325d489aeb8d78219f4a249ba9d1ae558ffad7d8fcf60e314cca8313bcd64736f6c63430005100032",
  "source": "pragma solidity ^0.5.0;\r\n\r\nimport \"./tokenfactory.sol\";\r\n\r\ncontract TokenHelper is TokenFactory {\r\n\t\r\n  modifier onlyOwnerOf(uint _tokenId) {\r\n    require(msg.sender == tokenToOwner[_tokenId]);\r\n    _;\r\n  }\r\n\r\n  function getTokenDetail (uint _tokenId) public view\r\n  returns(\r\n    uint,\r\n    string memory,\r\n    string memory,\r\n    uint,\r\n    string memory,\r\n    string memory\r\n    ) {\r\n    require( (_tokenId > 0) || (_tokenId <= tokens.length) );\r\n    \r\n    Token memory token = tokens[_tokenId];\r\n\r\n    return (\r\n      _tokenId,\r\n      token.name,\r\n      token.addresse,\r\n      token.price,\r\n      token.image,\r\n      token.description\r\n    );\r\n  }\r\n  \r\n\r\n  function getTokensByOwner(\r\n    address _owner\r\n  ) external view returns(uint[] memory) {\r\n\r\n    uint[] memory result = new uint[](ownerTokenCount[_owner]);\r\n    uint counter = 0;\r\n    for (uint i = 0; i < tokens.length; i++) {\r\n      if (tokenToOwner[i] == _owner) {\r\n        result[counter] = i;\r\n        counter++;\r\n      }\r\n    }\r\n    return result;\r\n  }\r\n\r\n  function getAllTokens() external view returns(uint[] memory) {\r\n    uint[] memory result = new uint[](tokens.length);\r\n    uint counter = 0;\r\n    for (uint i = 0; i < tokens.length; i++) {\r\n      result[counter] = i;\r\n      counter++;\r\n    }\r\n    return result;\r\n  }\r\n\r\n  function updateToken(\r\n    uint _tokenId, \r\n    string memory _name, \r\n    string memory _addresse, \r\n    uint _price, \r\n    string memory _image, \r\n    string memory _description\r\n  ) public onlyOwnerOf(_tokenId) {\r\n  \r\n    tokens[_tokenId].name = _name;\r\n    tokens[_tokenId].addresse = _addresse;\r\n    tokens[_tokenId].price = _price;\r\n    tokens[_tokenId].image = _image;\r\n    tokens[_tokenId].description = _description;\r\n  }\r\n\r\n  function setTokenOnline(uint _tokenId) external onlyOwnerOf(_tokenId) {\r\n    tokens[_tokenId].state = true;\r\n    tokens[_tokenId].updatedAt = now;\r\n  }\r\n\r\n  function setTokenOffline(uint _tokenId) external onlyOwnerOf(_tokenId) {\r\n    tokens[_tokenId].state = false;\r\n    tokens[_tokenId].updatedAt = now;\r\n  }\r\n\r\n}\r\n",
  "sourcePath": "C:\\Users\\ryank\\OneDrive\\Documents\\Supinfo_tp\\5Bloc\\ImmoDity\\contracts\\tokenhelper.sol",
  "compiler": {
    "name": "solc",
    "version": "0.5.16+commit.9c3226ce.Emscripten.clang"
  },
  "schemaVersion": "3.3.4",
  "updatedAt": "2021-03-02T20:16:59.652Z",
  "networkType": "ethereum",
  "devdoc": {
    "methods": {
      "isOwner()": {
        "details": "Returns true if the caller is the current owner."
      },
      "owner()": {
        "details": "Returns the address of the current owner."
      },
      "renounceOwnership()": {
        "details": "Leaves the contract without owner. It will not be possible to call `onlyOwner` functions anymore. Can only be called by the current owner.     * NOTE: Renouncing ownership will leave the contract without an owner, thereby removing any functionality that is only available to the owner."
      },
      "transferOwnership(address)": {
        "details": "Transfers ownership of the contract to a new account (`newOwner`). Can only be called by the current owner."
      }
    }
  },
  "userdoc": {
    "methods": {}
  }
}